{
  "contractName": "TodoList",
  "abi": [
    {
      "inputs": [],
      "payable": false,
      "stateMutability": "nonpayable",
      "type": "constructor"
    },
    {
      "constant": true,
      "inputs": [],
      "name": "taskCount",
      "outputs": [
        {
          "internalType": "uint256",
          "name": "",
          "type": "uint256"
        }
      ],
      "payable": false,
      "stateMutability": "view",
      "type": "function"
    },
    {
      "constant": true,
      "inputs": [
        {
          "internalType": "uint256",
          "name": "",
          "type": "uint256"
        }
      ],
      "name": "tasks",
      "outputs": [
        {
          "internalType": "uint256",
          "name": "id",
          "type": "uint256"
        },
        {
          "internalType": "string",
          "name": "content",
          "type": "string"
        },
        {
          "internalType": "bool",
          "name": "completed",
          "type": "bool"
        }
      ],
      "payable": false,
      "stateMutability": "view",
      "type": "function"
    },
    {
      "constant": false,
      "inputs": [
        {
          "internalType": "string",
          "name": "_content",
          "type": "string"
        }
      ],
      "name": "createTask",
      "outputs": [],
      "payable": false,
      "stateMutability": "nonpayable",
      "type": "function"
    }
  ],
  "bytecode": "0x60806040526000805534801561001457600080fd5b5060408051808201909152601381527f437265617465206d6f7265205461736b73212100000000000000000000000000602082015261005b906001600160e01b0361006016565b610167565b60008054600190810180835560408051606081018252828152602080820187815282840187905293865284815291909420845181559151805192936100ad939085019291909101906100cc565b50604091909101516002909101805460ff191691151591909117905550565b828054600181600116156101000203166002900490600052602060002090601f016020900481019282601f1061010d57805160ff191683800117855561013a565b8280016001018555821561013a579182015b8281111561013a57825182559160200191906001019061011f565b5061014692915061014a565b5090565b61016491905b808211156101465760008155600101610150565b90565b6103a0806101766000396000f3fe608060405234801561001057600080fd5b50600436106100415760003560e01c8063111002aa146100465780638d977672146100ee578063b6cb58a514610195575b600080fd5b6100ec6004803603602081101561005c57600080fd5b81019060208101813564010000000081111561007757600080fd5b82018360208201111561008957600080fd5b803590602001918460018302840111640100000000831117156100ab57600080fd5b91908080601f0160208091040260200160405190810160405280939291908181526020018383808284376000920191909152509295506101af945050505050565b005b61010b6004803603602081101561010457600080fd5b503561021b565b604051808481526020018060200183151515158152602001828103825284818151815260200191508051906020019080838360005b83811015610158578181015183820152602001610140565b50505050905090810190601f1680156101855780820380516001836020036101000a031916815260200191505b5094505050505060405180910390f35b61019d6102ca565b60408051918252519081900360200190f35b60008054600190810180835560408051606081018252828152602080820187815282840187905293865284815291909420845181559151805192936101fc939085019291909101906102d0565b50604091909101516002909101805460ff191691151591909117905550565b600160208181526000928352604092839020805481840180548651600296821615610100026000190190911695909504601f810185900485028601850190965285855290949193929091908301828280156102b75780601f1061028c576101008083540402835291602001916102b7565b820191906000526020600020905b81548152906001019060200180831161029a57829003601f168201915b5050506002909301549192505060ff1683565b60005481565b828054600181600116156101000203166002900490600052602060002090601f016020900481019282601f1061031157805160ff191683800117855561033e565b8280016001018555821561033e579182015b8281111561033e578251825591602001919060010190610323565b5061034a92915061034e565b5090565b61036891905b8082111561034a5760008155600101610354565b9056fea265627a7a72315820ad6ae1414d6d3a403e191508b08a83b929dd88596f8f9706d306f5ea0ea1711464736f6c634300050c0032",
  "source": "pragma solidity  ^0.5.0;\n\ncontract TodoList {\n    // Defines the number of Tasks.\n    uint public taskCount = 0;\n\n    // Defines the structure of Data for a task.\n    struct Task {\n        uint id;\n        string content;\n        bool completed;\n    }\n    //Sets up basically an array to hold all the data.\n    mapping(uint => Task) public tasks;\n\n    // Runs on deploy\n    constructor() public {\n        createTask(\"Create more Tasks!!\");\n    }\n\n    // Creates tasks to go into mapping.\n    function createTask(string memory _content) public {\n        taskCount ++;\n        tasks[taskCount] = Task(taskCount, _content, false);\n\n    }\n}",
  "sourcePath": "/Users/jjosey/Dapps/eth-todo-list/contracts/TodoList.sol",
  "compiler": {
    "name": "solc",
    "version": "0.5.12+commit.7709ece9.Emscripten.clang"
  },
  "schemaVersion": "3.0.19",
  "updatedAt": "2020-06-08T14:46:23.451Z",
  "networkType": "ethereum",
  "devdoc": {
    "methods": {}
  },
  "userdoc": {
    "methods": {}
  }
}