{
  "contractName": "TodoList",
  "abi": [
    {
      "constant": true,
      "inputs": [],
      "name": "taskCount",
      "outputs": [
        {
          "internalType": "uint256",
          "name": "",
          "type": "uint256"
        }
      ],
      "payable": false,
      "stateMutability": "view",
      "type": "function"
    }
  ],
  "bytecode": "0x608060405260008055348015601357600080fd5b506084806100226000396000f3fe6080604052348015600f57600080fd5b506004361060285760003560e01c8063b6cb58a514602d575b600080fd5b60336049565b6040518082815260200191505060405180910390f35b6000548156fea265627a7a72315820e2f7be9669f6f21fc1a06560b403ab51d476af748dda2b67e9ff0ee4ca59d6ca64736f6c634300050c0032",
  "source": "pragma solidity  ^0.5.0;\n\ncontract TodoList {\n    uint public taskCount = 0;\n}",
  "sourcePath": "/Users/jjosey/Dapps/eth-todo-list/contracts/TodoList.sol",
  "compiler": {
    "name": "solc",
    "version": "0.5.12+commit.7709ece9.Emscripten.clang"
  },
  "schemaVersion": "3.0.19",
  "updatedAt": "2020-06-08T12:38:39.736Z",
  "networkType": "ethereum",
  "devdoc": {
    "methods": {}
  },
  "userdoc": {
    "methods": {}
  }
}